:0E005F0078007403F27801E4F278027404F27F
:20019300AE82AF838EB48FB5227EFF7FFF7D00BD06005031ED2403F9E37B006206EB62075F
:2001B3007C00EE30E00FEFC313CE13CEFF6306016307A08007EFC313CE13CEFF0CBC0800F2
:2001D30040E00D80CA8E828F8322C01E85811EA9827F00E3FD09E3FE19BD0105BE000280BF
:2001F30037BD2305BE00028036BD2405BE00028071BD2506BE00030202C1BD2606BE0003AB
:2002130002030DBD2706BE0003020351BD2806BE000302039D0204527423F309E4F319741B
:200233000229FEC0017403C0E0E4C0E07400C0E0745CC0E08E82122BEFAE82E58124FCF5BB
:2002530081D001C3EE648094FE400675827E020454740229F87401F208E4F27424F309E4A9
:20027300F319740229FEC0017403C0E0E4C0E07400C0E0745CC0E08E82122BEFAE82E58110
:2002930024FCF581D0018E07C3EE648094FE400675827E020454740229F87401F208E4F237
:2002B300EF30E7030204527425F309E4F319740229FEC0017408C0E0E4C0E07403C0E074BC
:2002D3005CC0E08E82122A25AE82E58124FCF581D0018E07C3EE648094FE400675827E0228
:2002F3000454740229F87401F208E4F2EF30E7030204527426F309E4F319740229FEC00172
:20031300740DC0E0740BC0E07420C0E0744EC0E08E8212268DAE82E58124FCF581D001C35F
:20033300EE648094FE400675827E020454740229F87401F208E4F27427F309E4F319740258
:2003530029FEC0017403C0E0E4C0E07400C0E0745CC0E08E82122BEFAE82E58124FCF5811B
:20037300D0018E07C3EE648094FE400675827E020454740229F87401F208E4F2EF30E703E3
:200393000204527428F309E4F319740229FEC0017408C0E0E4C0E07403C0E0745CC0E08E57
:2003B30082122A25AE82E58124FCF581D0018E07C3EE648094FE400675827E020454090967
:2003D3007401F309E4F3EF30E7030204527803E2FEBE03097804E2FEBE040280047FFE809B
:2003F3005EC007C00712019CAD82AE83D0077809E2FC7B00780AE2FFE4FA2CFCEF3BFBEDC3
:20041300B50408EEB50304D0078006D0077FFE802EE51E24FDF886017808E2F3E904F8C062
:20043300007807E2FED000EEF2740229F8C0007806E2FED000EEF20909097805E2FEF38F3B
:0404530082D01E2213
:20006D00782AE2FE7F00782BE2FD7C002FFFEC3EFE7831EFF208EEF208E4F208F27825E255
:20008D00FC08E2FD08E2FE08E2FF7835EC2460F2ED34F008F2EE34FF08F2EF34FF08F278D6
:2000AD002AE2FFE4FEE51E240DF8080808A60618A607187600187600782BE2FAE4FBFEFF1A
:2000CD00E51E240DF8EB26F6EA0836F6EE0836F6EF0836F6782CE2FCE4FDFEFFE51E240DE9
:1F00ED00F8EC26FCED0836FDEE0836FEEF0836FF7841ECF208EDF208EEF208EFF2C2005F
:20045700AE82AF838EB48FB522C01EE581F51E2404F5817819E2FE08E2FF7D007C0078318A
:20047700A91E09E2C39EF708E29F09F708E29D09F708E29C09F77817E2FA08E2FB7E007F78
:2004970000C002C003C006C007A81E0886820886830886F008E61230CAAC82AD83AEF0FFD9
:2004B700E58124FCF5817831EDF2E2F5F0EEA2E7C5F033C5F033C5F05401C5F0F2C5F00825
:2004D700F2EF2FC5F0E245F0F2EF23540130E00244FE08F23395E008F27821E2FE08E2EE8F
:2004F700C40354F8FF7E007823E2FC08E2FD3395E0FBFA7831A91E09E22CF708E23D09F7B3
:2005170008E23B09F708E23A09F78E04EFFD3395E0FEFFA81E08E6C0E008E6C0E008E6C0C8
:20053700E008E6C0E08C828D838EF0EF122EEEAC82AD83AEF0FFE58124FCF5817831E22CCF
:20055700FC08E23DFD08E23EFE08E23FFF7825ECF208EDF208EEF208EFF2851E81D01E22AF
:20057700C01EE581F51E240CF581781DE2FE08E2FFC007C0067835E2C0E008E2C0E008E2D9
:20059700C0E008E2C0E07835E2F58208E2F58308E2F5F008E21230CAAA82AB83ACF0FDE515
:2005B7008124FCF581D006D007A81E08A603ECC4C6C4540F66C6540FC666C608F6EDC454C8
:2005D700F046F6EDC4540F30E30244F008F63395E008F68E04EFFD3395E0FEFFA81E08E600
:2005F700C0E008E6C0E008E6C0E008E6C0E08C828D838EF0EF1230CAAC82AD83AEF0FFE523
:200617008124FCF581E51E2405F8A605EEC423C6C423541F66C6541FC666C608F6EFC42383
:2006370054E046F6EFC423541F30E40244E008F63395E008F67811E2FA08E2FB3395E0FE1C
:20065700FF7835E2C0E008E2C0E008E2C0E008E2C0E08A828B838EF0EF1230CAAD83AEF056
:20067700FFE58124FCF5818D04EEC423CCC423541F6CCC541FCC6CCCFDEFC42354E04DFDDC
:20069700EFC423541F30E40244E0FE3395E0FFE51E2405F8EC26F6ED0836F6EE0836F6EFBD
:2006B7000836F6780FE2FA08E2CA25E0CA33CA25E0CA33FB3395E0FEFFE51E2405F8E62A36
:2006D700FA08E63BFB08E63EFE08E63FFF7829E2FD8DF005F0800CEA2AFAEB33FBEE33FECB
:2006F700EF33FFD5F0F174022AFAE43BFBE43EFEE43FFFE51E2405F8EFA2E713080808F659
:20071700EE1318F6EB1318F6EA1318F6080808E6A2E713F618E613F618E613F618E613F6F7
:20073700E51E2405F87939E6F30809E6F30809E6F30809E6F3781BE2FC08E2FD3395E0FE37
:20075700FFA81E08E6C0E008E6C0E008E6C0E008E6C0E08C828D838EF0EF1230CAAEF0FF51
:20077700E58124FCF581A81E08A606EF08F63395E008F608F67813E2FA08E2FB3395E0FE69
:20079700FF7835E2C0E008E2C0E008E2C0E008E2C0E08A828B838EF0EF1230CAAD83AEF015
:2007B700FFE58124FCF5818D04EEC403CCC40354076CCC5407CC6CCCFDEFC40354F84DFD13
:2007D700EFC403540730E20244F8FE3395E0FFA81E08EC26FCED0836FDEE0836FEEF0836A1
:2007F700FF74022CFCE43DFDE43EFEE43FA2E713FFEE13FEED13FDEC13FCEFA2E713FFEEDA
:2008170013FEED13FDEC13FC783DF208EDF208EEF208EFF27815E2FA08E2FB74802DFDE409
:200837003EFEE43FFFA81E08A60408A60508A60608A6077E007F00A81E08E6C0E008E6C0B0
:20085700E008E6C0E008E6C0E08A828B838EF0EF1230CAAC82AD83AEF0FFE58124FCF581FB
:20087700E51E2409F8A605EEA2E7C633C633C6540108F6EF2F46F6EF23540108F6087600CF
:20089700E51E2409F87945E6F30809E6F30809E6F30809E6F37829E2FDFA7B007408C39AF6
:2008B700FAE49B8AF005F07841E2FA08E2FB08E2FE08E2FFE23392D2800EA2D2EF13FFEE84
:2008D70013FEEB13FBEA13FAD5F0EFE51E2405F8EAC396FAEB0896FBEE0896FEEF0896FF51
:2008F700E51E2405F8A60208A60308A60608A6078DF005F07C507DC3E4FEFF3392D2800E77
:20091700A2D2EF13FFEE13FEED13FDEC13FCD5F0EFC004C005C006C007E51E2405F886825E
:200937000886830886F008E61230CAC8E51E2405C8A68208A68308A6F008F6E58124FCF5EB
:2009570081E51E2405F87949E6F30809E6F30809E6F30809E6F3E51E2405F8C3080808E69D
:200977009480504FE51E2405F8E625E0FA08E633FB08E633FE08E633FFE51E2409F8E6C07B
:20099700E008E6C0E008E6C0E008E6C0E08A828B838EF0EF122F44AC82AD83AEF0FFE58149
:2009B70024FCF5817841ECF208EDF208EEF208EFF28044E51E2409F8E6C0E008E6C0E00833
:2009D700E6C0E008E6C0E0E51E2405F886820886830886F008E6122F44AC82AD83AEF0FFC3
:2009F700E58124FCF5817841EC2CF2ED3308F2EE3308F2EF3308F27842E2FC08E2FD08E267
:200A1700FE3395E0FFC004C005C006C0078C828D838EF0EF1230CAAC82AD83AEF0FFE5810C
:200A370024FCF581C004C005C006C007900BDEE4F5F01230CAAEF0FFE58124FCF581E51E09
:200A57002409F8A606EF08F63395E008F608F67841E2C0E008E2C0E008E2C0E008E2C0E044
:200A770090E34374FFF5F01230CAAEF0FFE58124FCF5818E02EFFB3395E0FEFF74CF2AFA26
:200A9700740E3BFBE43EFEE43FFFE51E2409F8EA26FAEB0836FBEE0836FEEF0836FF783DE4
:200AB700EAF208EBF208EEF208EFF2EBC4CAC4540F6ACA540FCA6ACAFBEEC454F04BFBEF32
:200AD700C4CEC4540F6ECE540FCE6ECE30E30244F0FF7841E22AF208E23BF208E23EF20865
:200AF700E23FF27841E2F58208E2F58308E2F5F008E2851E81D01E22A9827F00E3FD09E3F5
:200B1700FE19BD0105BE0002801CBD4B05BE0002801BBD4C05BE00028023BD4E06BE0003DD
:200B3700020BAF020C11744BF309E4F31930000475827E22D200744CF309E4F31974022930
:200B5700FEC0017401C0E0E4C0E0742AC0E074D0C0E07477C0E08E82122B0BAE82E5812467
:200B7700FBF581D0018E07C3EE648094FE400475827E22740229F87401F208E4F2EF30E7A3
:200B970003020C0F782AE2FEBE550280047FFC8067744EF309E4F319740229FEC00174160B
:200BB700C0E0E4C0E0740FC0E074AAC0E07477C0E08E82122B0BAE82E58124FBF581D0013A
:200BD7008E07C3EE648094FE400475827E2209097401F309E4F3EF20E71E7E00EE240FF961
:200BF700E3FDEE04FC240FF8E2FBF3EDF28C060EC3EE6480949640E4C2008F8222A9827F14
:200C170000E3FD09E3FE19BD0105BE00028025BD5B05BE00028024BD5E05BE00028036BDDE
:200C37006006BE0003020CB6BD6206BE0003020CFC020D47745BF309E4F319300004758286
:200C57007E22D200782A74F4F2782B742EF2745EF309E4F319740229FEC0017402C0E0E4C2
:200C7700C0E0742AC0E07477C0E08E82122BEFAE82E58124FCF581D0018E07C3EE648094FD
:200C9700FE400475827E22740229F87401F208E4F2EF30E703020D457460F309E4F31990DB
:200CB700313EE493FE7D00740229FCC001742FC0E0742DC0E0C006C0058C8212268DAE824E
:200CD700E58124FCF581D001C3EE648094FE400475827E22740229F87401F208E4F274627C
:200CF700F309E4F319740229FEC0017403C0E0E4C0E0742AC0E074F6C0E07477C0E08E8215
:200D1700122B0BAE82E58124FBF581D0018E07C3EE648094FE400475827E2209097401F367
:200D370009E4F3EF20E707C007120460D007C2008F8222C01E85811EA9827F00E3FD09E33E
:200D5700FE19BD0105BE00028025BD6A05BE00028024BD6E05BE0002804EBD7006BE0003FB
:200D7700020E0BBD7206BE0003020E55020EBE746AF309E4F31930000675827E020EC0D201
:200D970000E51E24FDF8740356FE7829EEF2782A74F4F27829E2030354C02434FE782BEE54
:200DB700F2746EF309E4F319740229FEC0017402C0E0E4C0E0742AC0E07477C0E08E821279
:200DD7002BEFAE82E58124FCF581D0018E07C3EE648094FE400675827E020EC0740229F807
:200DF7007401F208E4F2EF30E703020EBC7470F309E4F3197829E290313E93FE7D007402EC
:200E170029FCC001742FC0E0742DC0E0C006C0058C8212268DAE82E58124FCF581D001C333
:200E3700EE648094FE400675827E020EC0740229F87401F208E4F27472F309E4F319740288
:200E570029FEC0017403C0E0E4C0E0742AC0E074F6C0E07477C0E08E82122B0BAE82E58137
:200E770024FBF581D0018E07C3EE648094FE400575827E803409097401F309E4F3EF20E77B
:200E970024E51E24FCF88601C007C001120577AB82AC83ADF0FED001D007EBF309ECF309F1
:0C0EB700EDF309EEF3C2008F82D01E2282
:04313E002D4B87FF8F
:08010C00751200E4F513F5146F
:200EC300AF82E51224F94064E51275F003A4900ED573020EEA020EF0020EFB020F0C020F0A
:200EE3000C020F0C020F0FBFAA480512228F057E008D118E100512228F057E00ED2510F50C
:200F030010EE3511F511051222051222BFFF1A751200E5134514601A120F20800BC013C089
:1F0F2300148510828511832222051222BFFF0375120022858213858314900EC3021D7757
:02011400C20126
:200F4200C01E85811EAF82784DE4F2784EE51E24FDF9E7F27402C0E0E4C0E0744DC0E07496
:200F62003CC0E08F82122BEFE58124FCF581D01E22A9827F00E3FD09E3FE19BD0105BE003C
:200F8200028010BD6F05BE0002800FBD7063BE0060801B746FF309E4F31930010475827E7B
:200FA20022D2017856E4F27470F309E4F3197856E290354293FE740229FDC001C0068D824C
:200FC200120F42AE821581D0018E07C3EE648094FE400475827E22740229F87401F208E494
:200FE200F27856E22401F27856E2B41F0040B8C2018F8222AF8274AEC0E08F82120F421549
:201002008122AF8274AFC0E08F82120F42158122C01E85811EA9827F00E3FD09E3FE19BDBF
:201022000105BE00028010BD8005BE0002800FBD816FBE006C803A7480F309E4F3197402E0
:2010420029FEC00174D5C0E08E82120F42AE821581D001C3EE648094FE400575827E80430F
:20106200740229F87401F208E4F27481F309E4F319740229FEC001E51E24FDF8E6C0E08E23
:2010820082120F42AE821581D0018E07C3EE648094FE400575827E800A09097401F309E46B
:2010A200F38F82D01E22C01E85811EA9827F00E3FD09E3FE19BD0105BE00028013BD8A0529
:2010C200BE00028012BD8B05BE0002803D02114B748AF309E4F319740229FEC0017420C0F8
:2010E200E08E82120F42AE821581D001C3EE648094FE400575827E8052740229F87401F253
:2011020008E4F2748BF309E4F319E51E24FDF8B602005009E51E24FDF8860680027E0074BB
:201122000229FDC001C0068D82120F42AE821581D0018E07C3EE648094FE400575827E80FF
:201142000A09097401F309E4F38F82D01E22C01E85811EAF82E51E24FDF886017440F3E5A6
:201162001E24FBF8E6C0E008E6C0E0E51E24FDF8E6C0E0743CC0E08F82122BEFE58124FC6F
:20118200F581D01E22AF82C3EF648094E1401174FA8FF063F08095F04006EF24A0FF800C71
:2011A200C3EF648094A0500474602FFFEF3395E0C40354F8CFC403CF6FCF54F8CF6FFEEF49
:2011C2002442FFEE3431FE7D807408C0E0E4C0E0C007C006C00590004E75F06012301BE583
:2011E2008124FBF58122C01E85811EA9827F00E3FD09E3FE19BD0105BE00028037BDAF057B
:20120200BE00028036BDB005BE00028062BDB106BE00030212A9BDB206BE00030212E1BD68
:20122200B306BE0003021315BDB406BE000302134C02137C74AFF309E4F319740229FEC072
:20124200017421C0E08E82120F42AE821581D001C3EE648094FE400675827E02137E740261
:2012620029F87401F208E4F274B0F309E4F319740229FEC001E51E24FDF8E6C0E08E8212D4
:201282000F42AE821581D001C3EE648094FE400675827E02137E740229F87401F208E4F213
:2012A20074B1F309E4F319740229FEC001E51E24FCF8E6C0E08E82120F42AE821581D00112
:2012C200C3EE648094FE400675827E02137E740229F87401F208E4F274B2F309E4F3197435
:2012E2000229FEC0017422C0E08E82120F42AE821581D001C3EE648094FE400675827E02DE
:20130200137E740229F87401F208E4F274B3F309E4F319740229FEC001E51E24FBF8E6C02D
:20132200E08E82120F42AE821581D001C3EE648094FE400575827E8043740229F87401F21F
:2013420008E4F274B4F309E4F319740229FEC001E51E24FAF8E6C0E08E82120F42AE8215E4
:2013620081D0018E07C3EE648094FE400575827E800A09097401F309E4F38F82D01E22AFEF
:20138200827407C0E0E4C0E0747FC0E0E4C0E08F821211E8E58124FCF58122C01E85811ED7
:2013A200AF82E51E24FCF8E6C40354F8FE7407C0E0E51E24FDF8E6C0E0747FC0E0C0068F43
:2013C200821211E8E58124FCF581D01E22A9827F00E3FD09E3FE19BD0105BE0002801BBD0A
:2013E200C205BE0002801ABDC305BE00028022BDC605BE000280650214A674C2F309E4F3F1
:201402001930010475827E22D20174C3F309E4F319740229F582C001121381AE82D001C3AE
:20142200EE648094FE400475827E22740229F87401F208E4F2C0017409C0E0E4C0E0C0E08D
:2014420090004D75F060122FB1158115811581D0017856E4F274C6F309E4F319740229FEFC
:20146200C0017409C0E0E4C0E0744DC0E08E82121150AE82158115811581D0018E07C3EE1B
:20148200648094FE400475827E22740229F87401F208E4F27856E22401F27856E2B4800072
:2014A20040B3C2018F8222AF827856E2FE785604F2EE2457F8EFF27856E2B411004004782B
:2014C20056E4F222C01E85811E7F00E51E24FDF88601E3FD09E3FE19BD0105BE0002801C96
:2014E200BDD405BE0002801BBDDA05BE00028055BDDE06BE00030215B00215ED74D4F30957
:20150200E4F31930010675827E0215EFD201E51E24F9FE7856E4F27D007C40C001C006C012
:2015220005C004E51E24F9F8E6C0E008E6C0E0122D7EE58124FBF581D0017867E4F274DA28
:20154200F309E4F319740229FEC001E51E24FBF8E6C0E0E51E24FCF8E6C0E08E8212139D2C
:20156200AE8215811581D0018E07C3EE648094FE400575827E8076740229F87401F208E4E6
:20158200F27856F2C0017956E32457F8D001E260587856E2FE785604F2EE2457F8E2F5821A
:2015A200C001121187D00174DEF309E4F319740229FEC0017409C0E0E4C0E0744DC0E08EC1
:2015C20082121150AE82158115811581D0018E07C3EE648094FE400575827E8010740229AC
:1015E200F87401F208E4F2809BC2018F82D01E22BD
:20314200003E7F414D4F2E0000207454547C7800007E7E484878300000387C4444440000C1
:2031620000307848487E7E0000387C54545C18000000087C7E0A0A000098BCA4A4FC7C001F
:20318200007E7E08087870000000487A7A4000000000808080FA7A00007E7E1038684000DD
:2031A2000000427E7E400000007C7C18381C7C78007C7C04047C780000387C44447C380053
:2031C20000FCFC24243C180000183C2424FCFC00007C7C04040C080000485C5454742400CD
:2031E2000004043E7E444400003C7C40407C7C00001C3C60603C1C00001C7C7038707C1C99
:2032020000446C38386C4400009CBCA0E07C3C00004464745C4C440000007F7F41410000C4
:2032220040687C5E49492200000041417F7F000000080CFEFE0C080000183C7E1818181880
:2032420000000000000000000000004F4F0000000007070000070700147F7F14147F7F1466
:2032620000242E6B6B3A1200006333180C66630000327F4D4D7772500000000406030100C3
:2032820000001C3E63410000000041633E1C0000082A3E1C1C3E2A080008083E3E0808007C
:2032A200000080E0600000000008080808080800000000606000000000406030180C060260
:2032C200003E7F49457F3E000040447F7F40400000627351494F460000226349497F360012
:2032E20000181814167F7F1000276745457D3900003E7F49497B3200000303797D07030094
:2033020000367F49497F360000266F49497F3E000000002424000000000080E464000000BB
:2033220000081C3663414100001414141414140000414163361C080000020351590F0600D1
:203342001818181818181818007C7E0B0B7E7C00007F7F49497F3600003E7F414163220098
:20336200007F7F41633E1C00007F7F4949414100007F7F0909010100003E7F41497B3A002F
:20338200007F7F08087F7F000000417F7F410000002060417F3F0100007F7F1C366341002B
:2033A200007F7F4040404000007F7F060C067F7F007F7F0E1C7F7F00003E7F41417F3E00D7
:2033C200007F7F09090F0600001E3F21617F5E00007F7F19396F460000266F49497B320031
:2033E2000001017F7F010100003F7F40407F3F00001F3F60603F1F00007F7F3018307F7FDD
:203402000063771C1C77630000070F78780F0700006171594D474300181818FFFF18181812
:203422003333CCCC00000000000000FFFF0000000000000F0F000000000000F0F000000090
:20344200FFFFFFFFFFFFFFFFFFFFFFFF00000000F0F0F0F0F0F0F0F00101010101010101EE
:203462008080808080808080FFFF0000000000003333CCCC3333CCCC000000000000FFFF52
:203482003030C0C03030C0C03399CC663399CC66000000000000FFFF000000FFFF1818182A
:2034A20000000000F0F0F0F00000001F1F181818181818F8F8000000C0C0C0C0C0C0C0C08C
:2034C200000000F8F81818181818181F1F181818181818F8F8181818181818FFFF0000001E
:2034E200FFFF000000000000FFFFFF00000000000000000000FFFFFF0303030303030303BA
:203502000707070707070707E0E0E0E0E0E0E0E000787830180C0603F0F0F0F00000000064
:20352200000000000F0F0F0F1818181F1F0000000F0F0F0F000000000F0F0F0FF0F0F0F08F
:1F354200AED580A83FD300408D14200021007F220007A1C8DA12817FD911DB20A6A4AFB0
:03000000020006F5
:20011600C202D203D204D20578777401F208E4F2787904F208E4F2787B04F208E4F2787DCE
:2001360004F208E4F2787F04F208E4F2788104F208E4F2788304F208E4F2788504F208E48F
:20015600F2788704F208E4F2788904F208E4F2788B04F208E4F2788D04F208E4F2788F0434
:04017600F208E4F2B5
:0301900002000367
:03000300021C6379
:2015F200AE82AF838EB48FB52275D00012294E75D00822AE82AF83C2027D007C007872E2A7
:201612002EF208E23FF208E23DF208E23CF27876E22401F2D20222A9827F00E3FD09E3FEFB
:2016320019BD0105BE0002802EBD3305BE0002802DBD3405BE00028050BD3506BE000302AB
:2016520016DABD3606BE000302171BBD3706BE000302175C0217967433F309E4F3197402B2
:2016720029F582C0011213CFAE82D001C3EE648094FE400475827E22740229F87401F208FA
:20169200E4F27434F309E4F319740229FEC001746DC0E07435C0E0E4C0E0C0E0C006121496
:2016B200C6AE82E58124FBF581D001C3EE648094FE400475827E22740229F87401F208E46A
:2016D200F27435F309E4F319740229FEC001747EC0E07435C0E0E4C0E07402C0E0C00612C6
:2016F20014C6AE82E58124FBF581D001C3EE648094FE400475827E22740229F87401F208FA
:20171200E4F27436F309E4F319740229FEC001748FC0E07435C0E0E4C0E07404C0E0C0069F
:201732001214C6AE82E58124FBF581D001C3EE648094FE400475827E22740229F87401F2AF
:2017520008E4F27437F309E4F319740229FEC0017497C0E07435C0E0E4C0E07406C0E0C052
:20177200061214C6AE82E58124FBF581D0018E07C3EE648094FE400475827E22090974014B
:20179200F309E4F38F8222A9827F00E3FD09E3FE19BD0105BE0002801BBD3D05BE00028047
:2017B2001ABD3E05BE0002803DBD3F05BE00028060021847743DF309E4F319740229F582CB
:2017D200C001120F73AE82D001C3EE648094FE400475827E22740229F87401F208E4F2744F
:2017F2003EF309E4F319740229F582C001120B0FAE82D001C3EE648094FE400475827E22A7
:20181200740229F87401F208E4F2743FF309E4F319740229F582C001121629AE82D0018E84
:2018320007C3EE648094FE400475827E2209097401F309E4F38F8222C01EE581F51E240481
:20185200F581A9827F00E3FD09E3FE19BD0105BE00028013BD4505BE00028012BD4605BE3E
:201872000002803E02192B7445F309E4F319740229FEC0017468C0E08E821201DDAE82158C
:2018920081D001C3EE648094FE400675827E02192D740229F87401F208E4F27446F309E444
:2018B200F3197868E2FF08E2FC08E2FD08E2FEA81E08A60708A6040876000876008D038E4D
:2018D20004E4FDFE740229FAC001A81E08E6C0E008E6C0E008E6C0E008E6C0E0C003C00434
:2018F200C005C006749EC0E07435C0E07402C0E0E4C0E0C0021214C6AE82E58124F3F581E5
:20191200D0018E07C3EE648094FE400575827E800A09097401F309E4F38F82851E81D01E67
:2019320022A9827F00E3FD09E3FE19BD0105BE0002801CBD4C05BE0002801BBD4D05BE0091
:2019520002803EBD4E06BE00030219CB021A1A744CF309E4F319740229F582C001120C1412
:20197200AE82D001C3EE648094FE400475827E22740229F87401F208E4F2744DF309E4F3E2
:2019920019740229FEC001746CC0E07401C0E08E82120D4AAE8215811581D001C3EE6480EE
:2019B20094FE400475827E22740229F87401F208E4F2744EF309E4F319786CE2FB08E2FC77
:2019D20008E2FD08E2FE740229FAC001C003C004C005C00674AAC0E07435C0E07403C0E09C
:2019F20014C0E0C0021214C6AE82E58124F7F581D0018E07C3EE648094FE400475827E22E4
:201A120009097401F309E4F38F8222A9827F00E3FD09E3FE19BD0105BE00028013BD54056E
:201A3200BE00028012BD5505BE00028018021ACE7454F309E4F31920020475827E227455AF
:201A5200F309E4F3197876E2FB7C007D007E00C001C003C004C005C0067872E2F58208E246
:201A7200F58308E2F5F008E2122F44AB82AC83ADF0FEE58124FCF581D001740229FAC00180
:201A9200C003C004C005C00674AAC0E07435C0E07408C0E003C0E0C0021214C6AE82E58118
:201AB20024F7F581D0018E07C3EE648094FE400475827E2209097401F309E4F38F8222A9E5
:201AD200827F00E3FD09E3FE19BD0105BE0002801CBD5B05BE0002801BBD5D05BE0002801A
:201AF2005DBD5E06BE0003021B88021BE7745BF309E4F31920020475827E227876E2FB7C2D
:201B1200007D007E00C001C003C004C005C0067872E2F58208E2F58308E2F5F008E2122F46
:201B320044AB82AC83ADF0FEE58124FCF581D0017870EBF208ECF2745DF309E4F3197402AD
:201B520029FEC001740AC0E07468C0E08E82122484AE8215811581D001C3EE648094FE4093
:201B72000475827E22740229F87401F208E4F2745EF309E4F319C001122477AD82AE83D080
:201B920001C006C005C00112246DAB82AC83D001D005D006740229FAC001C005C006C003C3
:201BB200C00474ADC0E07435C0E07406C0E0C0E0C0021214C6AE82E58124F7F581D0018E57
:201BD20007C3EE648094FE400475827E2209097401F309E4F38F82222003062004033005D8
:201BF20041300412758277121933AF82C3EF648094FE5002C20430051275828112184AAF2D
:201C120082C3EF648094FE5002C2053003CA758289121A1DAF82C3EF648094FE50BAC20301
:201C320080B678777401F208E4F2788104F208E4F2788904F208E4F2758277121AD1AF82EA
:201C5200C3EF648094FE50F078777401F208E4F222122662E4C0E07582C21228CB1581C280
:201C7200F0D2F185F02290356675F08012226C758277121799AF82C3EF648094FE50F090FF
:0C1C92001605120F36121BEA75820022A4
:20356100BADA551337613505020501034820202020202020202020202020204300503A207C
:2035810020202020202020202020205061004475737420763A00526620663A200025752552
:1535A100252525205420257500257500257520733A20257500BD
:05017A00E4F517F51883
:201C9E00AE82AF838EB48FB522C022C0E0C0F0C082C083C007C006C005C004C003C002C00A
:201CBE0001C000C0D075D000E516603B74D5C0E074FDC0E075821012259D15811581E515DF
:201CDE00C313F5157582061228574003431580D51617E51745186011121CFB8008C017C049
:201CFE0018851582228002D2A8D0D0D000D001D002D003D004D005D006D007D083D082D0C3
:201D1E00F0D0E0D02232C022C0E0C0F0C082C083C007C006C005C004C003C002C001C0000E
:201D3E00C0D075D000C2A874C0C0E074FCC0E075821012259D15811581751608D0D0D00058
:201D5E00D001D002D003D004D005D006D007D083D082D0F0D0E0D02232858217858318D250
:0C1D7E00F0D2F185F022758210022E8751
:0F017F00C206C20778B2E4F208F278B4F208F2CE
:201D8A008582A322AF82AEAD5306F8530707EF4EF5AD22AF82AEAE5306F8530707EF4EF5BD
:201DAA00AE22AF82AEDC53060F5307F0EF4EF5DC22AE82AF838E048CCF8F068ECE22858243
:201DCA00A5228582E710C00280FB85E78222C01E85811EAD82AE83AFF0E51E24FDF8860440
:201DEA008D828E838FF01230AEF582C007C006C005C004121DCCAB82D004D005D006D0073F
:201E0A008D828E838FF0EB122D63A3AD82AE83DCCFD01E22C01E85811EAD82AE83AFF0E5E8
:201E2A001E24FDF886048D828E838FF01230AEFBA3AD82AE838B82C007C006C005C0041215
:201E4A001DCCD004D005D006D007DCDAD01E22C01E85811EAF82C2E98F82121DCCAF82C098
:201E6A0007E51E24FAF8E6C0E0E51E24FBF886820886830886F0121E1E1581D007D2E98FFC
:201E8A0082D01E22C01E85811EAF82C2E98F82121DCCAF82C007E51E24FAF8E6C0E0E51E22
:201EAA0024FBF886820886830886F0121DD81581D007D2E98F82D01E22AF82C2E98F82121B
:201ECA001DCCAF82D2E98F8222AF82C2E98F82121DCC758200121DCCAF82D2E98F8222C037
:201EEA001E85811EAF82C2E98F82121DCCAF82E51E24FDF88682C007121DCCD007D2E98F76
:201F0A0082D01E22C01E85811EAF82741F5F4420FFE51E24FAF8E6C0E0E51E24FBF8E6C03E
:201F2A00E008E6C0E008E6C0E08F82121E59E58124FCF581D01E22C01E85811EAF82530768
:201F4A001FE51E24FAF8E6C0E0E51E24FBF8E6C0E008E6C0E008E6C0E08F82121E8EE581C8
:201F6A0024FCF581D01E22C01E85811EAF82741F5F4420FFE51E24FDF8E6C0E08F82121E46
:201F8A00E91581D01E22AF82741F5FF582021ED3AF82C007758225121EE915812275820837
:201FAA00021ED3758209121ED3E5821322AF82430702C007758220121EE91581E5AD30E3D6
:201FCA00FB22C01EE581F51E24FFF581758200121ED3121FB7851E81D01E22AF82C2E88F6A
:201FEA000674FD5EFFC007758220121EE9158122C01EE581F51E24FFF581758200121ED36A
:20200A00121FE5851E81D01E22AF82C007758223121EE9158122C01E85811EAE82AF83E540
:20202A001E24FDF8E624FEFDC007C006C005758223121EE91581D006D007E51E24FDF886F0
:20204A00057C80C007C006C005C004C005C006C007C004758230121E59E58124FCF581D0CD
:20206A0004D005D006D007C005C006C007C00475822A121E59E58124FCF5817401C0E0758A
:20208A008222121EE91581D01E22C01E85811EAE82AF83E51E24FDF886057C80E51E24FCA9
:2020AA00F8740A26541F4420FBC005C005C006C007C0048B82121E59E58124FCF581D00566
:2020CA00E51E24FCF8E6700C1D1DC005758223121EE91581758202121ED3AF82E51E24FC61
:2020EA00F886F005F07401800225E0D5F0FB4207C007758222121EE91581D01E22C01E856C
:20210A00811EAF82C00774FAC0E0E4C0E0E51E24FCF886820886831224E5AD82AE83158147
:20212A001581D007E51E24FCF8A60508A606E51E24FCF8C3740196E40896500BE51E24FCC5
:20214A00F816B6FF020816E51E24FCF8860653060FEEC454F0FE53070FEF4206C006758232
:20216A0024121EE91581D01E22C01E85811EAF82E51E24FDF8E66003430708E51E24FDF86C
:20218A00B60203430704301003430701301103430702C007758220121EE91581D01E22C0B1
:2021AA001E85811EE582C40354F8FFE51E24FDF8E64207301003430710301103430780C0A4
:2021CA0007758226121EE91581D01E22C01E85811EAF82C007C022743FC0E0758221121E9B
:2021EA00E91581D022C022743FC0E075823C121EE91581D022C0227407C0E075823D121EFA
:20220A00E91581D022D007C007C022E51E24FDF8E6C0E0C2F0C2F185F0228F821221A91523
:20222A0081D022D007BF04067EDC7F0580047EF47F01C022C006C007E51E24FCF886821289
:20224A00210715811581D0227401C0E0A21092F0A21192F185F0227582701221731581D0A5
:20226A001E22AD82AE83AFF075E802D2EA30104474022DFAE43EFB8F048A828B838CF01281
:20228A0030AEFA8D828E838FF01230AEFBA31230AEFCC007C006C005C022E4C0E0C0028B3E
:2022AA00828C8312209415811581D022D005D006D007803D74022DFAE43EFB8F048A828B7C
:2022CA00838CF01230AEFA8D828E838FF01230AEFBA31230AEFCC007C006C005C022C002FC
:2022EA008B828C831220201581D022D005D006D00774032DFAE43EFB8F048A828B838CF078
:20230A001230AEF582C007C006C005C022121F9AD022D005D006D00774042DFAE43EFB8F8E
:20232A00048A828B838CF01230AEFA74062DF9E43EFB8F0489828B838CF01230AEF97405C8
:20234A002DFDE43EFE8D828E838FF01230AEFDC002C001A21092F0A21192F185F0228D820A
:20236A001221D61581158122C01E85811EAF827E007D60E51E24FDF8E6C0E0C007C006C07F
:20238A00057582A0121E59E58124FCF581D01E22758260021ED3758260121ED3AF8278B104
:2023AA00EFF278B1E2FFC0077491C0E07400C0E07460C0E0758261121E8EE58124FCF58122
:2023CA0022C022C0E0C0F0C082C083C007C006C005C004C003C002C001C000C0D075D00029
:2023EA007582FF121EC3AF82C2E8EF30E50B78B4E22401F208E23400F2EF30E4157582E1DB
:20240A00C007121EC3D00778B2E22401F208E23400F2EF30E62EC207758260121ED3AF8267
:20242A0078B1EFF278B1E2FFC0077491C0E07400C0E07460C0E0758261121E8EE58124FCEE
:20244A00F581D207C206D0D0D000D001D002D003D004D005D006D007D083D082D0F0D0E00A
:20246A00D0223278B2E2F58208E2F5832278B4E2F58208E2F58322A20722C01E85811EA9A8
:20248A0082E3FE09E3FF19BE0105BF00028008BE1E43BF02408007741EF3097402F33006EA
:2024AA000575827E8032E51E24FDF886077E007D60E51E24FCF8E6C0E0C007C006C005757A
:1B24CA0082A0121E59AF82E58124FCF581EF30E002D206D2E8758200D01E2285
:2024E500E58124FEF8E6F918E6F87A10E4FBFCE58225E0F582E58333F583EB33FBEC33FCF3
:11250500EB98F5F0EC994006FCABF0438201DADF225A
:20251600AE82AF838EB48FB5228582A322AF82AEAD5306F8530707EF4EF5AD22AF82AEAE03
:202536005306F8530707EF4EF5AE22AF82AEDC53060F5307F0EF4EF5DC22AE82AF838E0440
:202556008CCF8F068ECE228582A522C01E85811EAF82C28CC2A974035FFEBE020DE51E2475
:20257600FCF886068E8C8E8A800AE51E24FCF8868A08868CAE895306F053070FEF4EF58920
:20259600D2A9D28CD01E22C01E85811EAF82C28EC2AB74305FFEBE200DE51E24FCF88606B9
:2025B6008E8D8E8B800AE51E24FCF8868B08868DAE8953060F5307F0EF4EF589D2ABD28E7F
:2025D600D01E22C01E85811EAE82AF83C2C9C2C8C2ADEE54186016E51E24FCF886CA088624
:2025F600CBE51E24FCF886CC0886CD800AE51E24FCF886CA0886CB8FC1ADC853056453060A
:202616009B7F00ED3395E0FCED4206EC42078EC8D2ADD01E22C01E85811EAF82AEB374FEA4
:202636005EF5B3C2BDEF5406600EE51E24FCF886050886068DB48EB5AEB35306F053070F77
:20265600EF4EF5B3D2BD43B301D01E22E4F519F51A747BC0E0E4C0E07582021225611581AE
:20267600158122C0E0C0D074012519F519E4351AF51AD0D0D0E032C01E85811EA982E3FEC9
:2026960009E3FF19BE0105BF00028013BEED05BF00028059BEEE05BF00028075022741C02D
:2026B60001E51E24FBF98700D001E519F208E51AF218C000E51E24FAF88607D000E2FD0872
:2026D600E2FE18C000E51E24FCF8E62DFD08E63EFEA807EDF208EEF2D000E2FC08E2FFC307
:2026F600ED9CEE9F502574EDF309E4F319C001E51E24FBF98700D001E2FE08E2FFC3E5192E
:202716009EE51A9F400575827E802374EEF309E4F3E51E24FAF88601E3FE09E3FFC3EE9523
:1E27360019EF951A400575827E8003758200D01E22AF82EF14FEFF6004000080F6225D
:06003500E478FFF6D8FD9F
:20275400C01E85811EAF8274075FFE8EF005F07401800225E0D5F0FBFDEF24F84048E51E98
:2027740024FDF8E630E029E51E24FDF8E630E105ED42808005EDF4FC528074075EFCE51E3A
:2027940024FDF874E0564CF59EEDF4FC5293806174075E4410FCE51E24FDF874E0564CF5B0
:2027B4009EED4293804BEF24F04046E51E24FDF8E630E029E51E24FDF8E630E105ED42903F
:2027D4008005EDF4FF529074075EFFE51E24FDF874E0564FF59FEDF4FF5294801474075EEA
:2027F4004410FFE51E24FDF874E0564FF59FED4294D01E22AF8274075FFE8EF005F0740105
:20281400800225E0D5F0FBFEEF24F84005EEF4528022EF24F04005EEF4FE529022AF827468
:20283400075FFE8EF005F07401800225E0D5F0FBFEEF24F84004EE628022EF24F04003EE7E
:20285400629022AF82C21074075FFE8EF005F07401800225E0D5F0FBFEEF24F8400AEE55B0
:2028740080FD24FF9210800EEF24F04009E5905206EE24FF9210A21022AF8274075FFE8E3D
:20289400F005F07401800225E0D5F0FBFEEF24F84004EE428022EF24F04003EE429022AF8D
:0E28B400823010058F8202288D8F8202280844
:02018E00C209A4
:2028C200AE82AF838EB48FB522C01E85811EAF8243E20174035F25E025E0FE430601EF304C
:2028E200E6047D028031EF30E5047C1080027C00EF30E4047B2080027B00EB4204EF30E358
:20290200047B4080027B00EB4204EF30E2047B8080027B00EB4CFDED4EF5E275E100E5E268
:2029220020E107E51E24FDF886D9EFB40100E433FF30E707AFE274FE5FF5E2E4F51BF51CFC
:20294200F51DC2C2D2BA43A604D01E22E5E1FF30E04BE51C451D6045151C74FFB51C0215A2
:202962001D300807A91BE5DAF3800BE51C451D6005A91BE3F5DA051B7401B51C06E4B51D98
:20298200028002800343E220EF30E10920080343E220751B00E51C451D7002F51B22C01EFB
:2029A20085811EAF82A2109208E51E24FBF8861BE51E24F9F8861C08861D43E210EF2FFF02
:2029C2003010047E0180027E00EE4FF5DAD01E22AFE2C284C285AE8074EF5EF580438020B1
:2029E200AEE274F35EF5E2AEE274F35E4404F5E2AEE274FE5EF5E2758205C007122747AE0D
:202A02008074DF5EF580758205122747438010758205122747438020758205122747D0070D
:202A22008FE222C01E85811EA9827F00E3FD09E3FE19BD0105BE00028013BDB605BE000224
:202A42008012BDBB05BE00028055022B0674B6F309E4F31930090675827E022B08D209E5DE
:202A62001E24FCF886047D007E60C007C001E51E24FAF8E6C0E008E6C0E0C004C005C00635
:202A8200D2F085F022E51E24FDF886821229A0E58124FBF581D001D00774BBF309E4F3E552
:202AA2001B600575827E805EE51C451D6054AEE2C284C285AD8074EF5DF580438020ADE239
:202AC20074F35DF5E2ADE274F35D4404F5E2ADE274FE5DF5E2758205C006122747AD8074CF
:202AE200DF5DF580758205122747438010758205122747438020758205122747D0068EE2B3
:202B02007FF6C2098F82D01E22C01E85811EA9827F00E3FD09E3FE19BD0105BE0002801BA5
:202B2200BDC905BE0002801ABDCF05BE00028053BDD405BE00028068022BEA74C9F309E418
:202B4200F31930090675827E022BECD209E51E24FCFE7D007C40C0017401C0E0E4C0E0C04B
:202B620006C005C004C2F085F022E51E24FDF886821229A0E58124FBF581D00174CFF30971
:202B8200E4F319E51B600575827E805EC209E51C451D60057582F6805174D4F309E4F31906
:202BA200740229FEC001E51E24F9F8E6C0E008E6C0E0E51E24FBF8E6C0E0E51E24FDF8E6E7
:202BC200C0E08E82122A25AE82E58124FCF581D0018E07C3EE648094FE400575827E800AE5
:202BE20009097401F309E4F38F82D01E22C01E85811EA9827F00E3FD09E3FE19BD0105BE48
:202C020000028010BDDE05BE0002800FBDE369BE0066805174DEF309E4F3193009057582C0
:202C22007E8057D209E51E24FCF886047D007E60C007C001E51E24FAF8E6C0E008E6C0E0AD
:202C4200C004C005C006C2F085F022E51E24FDF886821229A0E58124FBF581D001D00774C4
:202C6200E3F309E4F3E51B600575827E800CE51C451D60027FF6C2098F82D01E22C01E85AD
:202C8200811EA9827F00E3FD09E3FE19BD0105BE0002801BBDF005BE0002801ABDF505BE67
:202CA20000028053BDFA05BE00028068022D5E74F0F309E4F31930090675827E022D60D2E7
:202CC20009E51E24FCFE7D007C40C0017401C0E0E4C0E0C006C005C004C2F085F022E51E9A
:202CE20024FDF886821229A0E58124FBF581D00174F5F309E4F319E51B600575827E805EFD
:202D0200C209E51C451D60057582F6805174FAF309E4F319740229FEC001E51E24F9F8E6AA
:202D2200C0E008E6C0E0E51E24FBF8E6C0E0E51E24FDF8E6C0E08E82122BEFAE82E581242B
:202D4200FCF581D0018E07C3EE648094FE400575827E800A09097401F309E4F38F82D01ED5
:012D6200224E
:200013007900E94400601B7A009035B678B675C900E493F2A308B8000205C9D9F4DAF275A1
:02003300C9FF03
:1B2D630020F71130F6138883A88220F509F6A8837583002280FEF280F5F0226F
:202D7E00C01E85811EE51E24FDF8868318868218E493A324DB600C24256005122E6C80F087
:202D9E00022E84D2D5E493A3C083C082B4731486F0188683188682181230AE6054A3122E8A
:202DBE006C80F5B4630818E618122E6C8043B46417E630E74618E6F42401F608E6F43400DB
:202DDE00F6742D122E6C8033B4782D868318868218E4122E5DE583122E5CE583122E5DE5D6
:202DFE0082122E5CE582122E5D30D5057430122E6CD082D083022D8EB475F6E6FA18E6F9E1
:202E1E00187C107D27122E47FF7CE87D03122E47C4F5837C647D00122E474283E975F00A1E
:202E3E0084C445F0F582EF80A97B000BC3E99CF9EA9DFA50F61BE92CF9EA3DFAEB22C4546B
:202E5E000F700320D51FC2D52490D43440D4C083C082C0F0F582E8C0E01214A9D0E0F8D0DC
:092E7E00F0D082D08322D01E2284
:202E8700AF82AEA674C75EF5A630110843880543C860800EAE8874FA5EF588AEC8749F5EFA
:202EA700F5C8301003EF42A622C01E85811EAF828FF005F07401800225E0D5F0FBFFE51EAD
:202EC70024FDF8E630E005EF42A98005EFF4FE52A9E51E24FDF8E630E105EF42B98005EF26
:072EE700F4FF52B9D01E22D6
:20003B0078B6E84400600A790075C900E4F309D8FC7800E84400600C79009000B6E4F0A330
:04005B00D8FCD9FAFA
:202EEE00FBC2D530E715D2D5E4C39582F582E49583F583E495F0F5F0E49BFBE58124FEF86E
:202F0E00E630E715B2D5181818E4C396F6E40896F6E40896F6E40896F6181818122F4A3024
:162F2E00D513FBE4C39582F582E49583F583E495F0F5F0E49B2212
:202F4400FBE58124FBF8E6F9087A20E4FCFDFEFFE5822582F582E58333F583E5F033F5F015
:202F6400EB33FB4017DAE98042E5822582F582E58333F583E5F033F5F0EB33FBEC33FCEDB2
:202F840033FDEE33FEEF33FFEC99ED96EE0896EF089618184013EC99FCED96FDEE0896FE8E
:0D2FA400EF0896FF1818438201DABEEB22F9
:202FB100C01E85811EC082C083C0F005810581A81E088602088603088604E51E24FBF8E545
:202FD1001E2404F9E6F70809E6F7E51E2404F88606088607E51E2404F816B6FF020816EE96
:202FF1004F60168A828B838CF0E51E24FDF8E6122D63A3AA82AB8380D1A81E08868208860F
:0A301100830886F0851E81D01E2280
:20301B00C01EE581F51E2408F581AD82AE83AFF0E51E2406F8A60508A60608A607E51E243D
:20303B00FBF8A91E09E6F70809E6F70809E6F7E51E24F9F8E51E2404F9E6F70809E6F7E50D
:20305B001E2404F88603088604E51E2404F816B6FF020816EB4C6028A81E08868208868348
:20307B000886F01230AEFCA31818A68208A6838D828E838FF0EC122D63A3AD82AE8380BF30
:13309B00E51E2406F886820886830886F0851E81D01E2232
:0D00060075812212313AE582600302000389
:1C30AE0020F71430F6148883A88220F507E6A88375830022E280F7E49322E02231
:2030CA00AAF0FB74FB2581F8E58286F0A9F008A4FCADF0E58389F0A42DFDE435F0FEE5826C
:2030EA0086F0A42DFDE5F03EFEE433FFEA89F0A42EFEE5F03FFFE58386F0A42EFEE5F03F53
:20310A00FFE5820886F0A42EFEE5F03FFFEB89F0A42FFFE58386F0A42FFFEA1886F0A42FAD
:10312A00FFE582080886F0A42F8EF08D838C822218
:04313A007582002278
:00000001FF
